:020000040800F2
:10000000600600200101000817110008791000089F
:10001000151100087D01000805150008000000000A
:100020000000000000000000000000003B1100087C
:100030007F01000800000000391100083D11000890
:100040001B0100081B0100081B0100081B01000820
:100050001B0100081B0100081B0100081B01000810
:100060001B0100081B0100081B0100081B01000800
:100070001B0100081B0100081B0100081B010008F0
:100080001B0100081B0100081B0100081B010008E0
:100090001B0100081B0100081B0100081B010008D0
:1000A0001B0100081B0100081B0100081B010008C0
:1000B0001B0100081B0100081B0100081B010008B0
:1000C0001B0100081B0100081B0100081B010008A0
:1000D0001B010008F91400081B0100081B0100089F
:1000E0001B0100081B0100081B010008DFF80CD0F1
:1000F00000F032F800480047311600086006002082
:100100000648804706480047FEE7FEE7FEE7FEE7B1
:10011000FEE7FEE7FEE7FEE7FEE7FEE7B5110008B3
:10012000ED000008D2B201E000F8012B491EFBD21D
:1001300070470022F6E710B513460A4604461946F2
:10014000FFF7F0FF204610BD421C10F8011B0029EC
:10015000FBD1801A70470000064C074D06E0E068AE
:1001600040F0010394E8070098471034AC42F6D3FE
:10017000FFF7C0FFFC1600081C170008FEE77047D9
:100180001CB501210220CDE9000104A34FF4FA625D
:10019000062103A000F0BEF81CBD00004F4B00007C
:1001A000415445310D0A00001CB501220C490D488F
:1001B00000F0D0FE4FF47A7000F076F90020FFF7DF
:1001C000DFFF01210220CDE9000107A34FF4FA620D
:1001D000042106A000F09EF8002800D001201CBDDC
:1001E000000000201C0200204F4B000041540D0A6B
:1001F0000000000030B58FB00C4605463C21684633
:10020000FFF797FF23462A461DA1684601F07CF9B7
:100210006846FFF799FF81B2684600F0C9F841F2DD
:1002200088320E211CA000F0CBF810B100200FB0D6
:1002300030BD00231C4A08211CA001F033FA08B18C
:100240000120F4E70023184A08211BA001F02AFA34
:1002500008B10220EBE70023134A082119A001F09E
:1002600021FA08B10320E2E700230F4A082118A071
:1002700001F018FA08B10420D9E70520D7E70000FB
:1002800041542B43574A41503D222573222C2225AD
:1002900073220D0A000000005749464920434F4E83
:1002A0004E454354454400001C0000202B43574A50
:1002B00041503A31000000002B43574A41503A3236
:1002C000000000002B43574A41503A330000000021
:1002D0002B43574A41503A340000000010B500F05B
:1002E000D9F9094948604888B0F5FF7F01D8401C1A
:1002F0004880064A80B209781154BDE810400122B6
:100300000149034800F026BE000000201C00002028
:100310001C0200202DE9FF5F9B46DDE90E89174690
:1003200000F0B8F90646DDE9000100F041F81E4C86
:10033000A8F101054FF4FA7A1AE000BF00F0AAF91B
:100340006168401A322828D96088A84225DDC3B2E6
:10035000164A4146584601F0A5F9C0B2012810D00E
:10036000DDE9000100F024F84FEA0A0000F09CF8F3
:1003700000F090F9801BB842E0D3002004B0BDE843
:10038000F09FB9F1000F06D0002060804FF400719B
:100390000648FFF7CEFE0120F0E7DDE9000100F09E
:1003A00007F8C820E2E70000000000201C00002041
:1003B0000A4601466423014800F000BE1C020020EA
:1003C0002DE9F04116460F46804600F063F90546D8
:1003D0000D4C12E000F05EF96168401A32280CD929
:1003E0006088042809D9C3B2F9B2084A404601F02E
:1003F00059F910B10120BDE8F08100F04BF9401B24
:10040000B042E7D30020F6E7000000201C000020E7
:1004100010B590F821100024022903D00421816333
:1004200001243DE001680A6822F00E020A600168BA
:100430000A6822F001020A601A4A0168914201D159
:10044000012121E0174A1432914201D110211BE011
:10045000144A2832914201D1891515E0114A3C32E3
:10046000914201D189140FE00E4A5032914202D1DB
:100470004FF4803108E00B4A6432914202D14FF4CC
:10048000801101E04FF08071064A083A5160012165
:1004900080F82110002180F82010416B01B18847BD
:1004A000204610BD0800024070B5044600F0F2F886
:1004B0000546601C02D004480078044400F0EAF8C5
:1004C000401BA042FAD370BD0C0000202DE9F84F6C
:1004D000DFF890A100220AF1040B144601274FF027
:1004E0000F090BF1040E00BF0B6807FA04F52B404F
:1004F000AB4274D1DFF870C14E68A6EB0C086645BC
:100500002BD00DDC032E34D005DC36B3012E19D0F0
:10051000022E2FD11BE0112E16D0122E2AD119E057
:10052000B8F5881F19D006DCB8F5803F15D0B8F5AE
:10053000801F1FD111E0B8F5001F0ED0B8F5041FC1
:1005400018D10AE0CA6815E0CA68121D12E0CA682C
:1005500008320FE0CA680C320CE08A682AB1012A1E
:100560004FF0080203D0456104E0042202E0056177
:1005700000E00022FF2B01D8064601E000F104064E
:100580004FEA840501D9A5F12005D6F800C009FA83
:1005900005F82CEA080C02FA05F54CEA050CC6F839
:1005A00000C04D68ED0057D5304DAE6946F00106EC
:1005B000AE61AD6924F0030605F0010500952C4DF0
:1005C00006EB050CDCF80850A6074FEA167809FA86
:1005D00008F6B543274EB04202D1002610E03BE0BA
:1005E000254EB04201D101260AE0244EB04201D18D
:1005F000022605E0224EB04201D1032600E0042687
:1006000006FA08F62E43CCF808604D68DAF8006068
:10061000ED03554601D51E4300E09E432E604D6814
:10062000DBF80060AD035D4601D51E4300E09E434C
:100630002E604D68DEF80060ED02754601D51E4360
:1006400000E09E432E604D68AD020E4D2E6801D530
:100650001E4300E09E432E60641C102CFFF444AF48
:10066000BDE8F88F000401400000111000100240A6
:100670000000014000080140000C01400010014052
:10068000001401400C0401400AB1016170470904E3
:10069000FBE7000001488068704700000C00002064
:1006A0000248816802781144816070470C00002084
:1006B000074810B5016841F010010160032000F007
:1006C0009BF8002000F006F800F024F8002010BD90
:1006D0000020024070B50D4D04464FF47A71287821
:1006E000B1FBF0F00A490968B1FBF0F000F02BFB18
:1006F00048B9102C07D200222146501E00F05CF8A9
:1007000000206C6070BD012070BD00000C00002056
:1007100018000020204808B5816941F0010181617D
:10072000816901F001010091C16941F08051C1610D
:10073000C06900F080500090032000F05DF80022B6
:1007400011466FF00B0000F037F8002211466FF0F1
:100750000A0000F031F8002211466FF0090000F0A5
:100760002BF800221146501F00F026F800221146F7
:10077000101F00F021F800221146901E00F01CF816
:1007800000221146501E00F017F80448416821F07D
:10079000E061416008BD000000100240000001401F
:1007A00000F01F02012191404009800000F1E0208B
:1007B000C0F8001170470000F0B40E4B1B680C46E7
:1007C000C3F30223C3F10705042D00D90425191D25
:1007D000072901D2002300E0DB1E012606FA05F1FD
:1007E000491E214099409E40761E16403143F0BC80
:1007F00000F092BC0CED00E0064900F0070208682A
:100800004FF6FF03184040EA0220034A10430860F5
:10081000704700000CED00E00000FA052DE9F047FC
:10082000DFF83C8105460E46D8F8000000F00700CE
:10083000B0420CD2D8F8001021F007013143C8F8BB
:100840000010D8F8000000F00700B04263D128780B
:10085000444C800705D56068A96820F0F000084383
:1008600060602878C00745D06868012816D02168E4
:10087000022816D0890700294DDA616821F00301AA
:1008800001436160FFF706FF6968074641F288305F
:1008900001290FD00229814619D027E02168890358
:1008A000E9E78901E7E700BFFFF7F4FEC11B49450F
:1008B00001D918E081466068C0F381000128F3D1B6
:1008C00018E000BFFFF7E6FEC11B49450BD8606882
:1008D000C0F381000228F5D10CE000BFFFF7DAFE7B
:1008E000C11B494502D90320BDE8F087606810F0BC
:1008F0000C0FF3D1D8F80010404601F00701B142C7
:100900000BD9016821F0070131430160006800F054
:100910000700B04201D00120E6E72878400705D55E
:100920006068E96820F4E0600843606028780007A8
:1009300006D56068296920F4605040EAC100606013
:1009400000F03CF86168084AC1F30311515CC840EB
:10095000064908600020FFF7BDFE0020C4E7000044
:100960000020024000100240E2160008180000209B
:10097000014800687047000018000020044805493D
:1009800000684968044AC1F30221515CC8407047BD
:100990001800002000100240F21600080448054923
:1009A00000684968044AC1F3C221515CC8407047DD
:1009B0001800002000100240F216000812A185B0B5
:1009C0000FC98DE80F0014A0144A00680490516804
:1009D000134801F00C03042B10D0082B0ED1C1F3E7
:1009E0008343C9031DF803000AD5516804AAC1F363
:1009F0004041515C0A4A5043B0FBF1F005B07047EA
:100A000008494843FAE700000203040506070809FD
:100A10000A0B0C0D0E0F1010010200000010024016
:100A200000127A0000093D002DE9F84F04460078D5
:100A3000B94DC00748D06868C0F38100012807D0CD
:100A40006868C0F38100022809D16868C00306D530
:100A50002868800338D5606800286FD034E060686B
:100A6000B0F5803F0BD010B1B0F5A02F11D02868A1
:100A700020F480302860286820F4802002E0286874
:100A800040F480302860606888B1FFF703FE0646B6
:100A900009E0286840F480202860F0E7FFF7FAFDBD
:100AA000801B642875D828688003F7D50CE0FFF711
:100AB000F1FD064605E000BFFFF7ECFD801B642852
:100AC000F0D828688003F7D42078944E80074FF040
:100AD00001094FF000083BD5686810F00C0F07D0F3
:100AE0006868C0F38100022809D16868C00306D491
:100AF0002868800714D5206901281FD110E02069DB
:100B0000B0B1C6F80090FFF7C5FD074605E000BF8D
:100B1000FFF7C0FDC01B0228C4D828688007F7D59E
:100B20002868616920F0F80040EAC10028600FE001
:100B3000C6F80080FFF7AEFD074606E0E9E000BF1B
:100B4000FFF7A8FDC01B022823D828688007F7D428
:100B5000207800072CD57248A169D9B1C0F800905F
:100B6000FFF798FD074604E0FFF794FDC01B02283D
:100B70000FD8686A8007F7D56A484FF4FA510068C1
:100B8000B0FBF1F0009000BF0098411E0091FAD236
:100B90000EE080E0C0F80080FFF77CFD074604E02F
:100BA000FFF778FDC01B022875D8686A8007F7D464
:100BB0002078400760D5E8690027C00008D4E869BC
:100BC00040F08050E861E869012700F08050009013
:100BD00055480168C90513D40168834641F4807102
:100BE0000160FFF757FD824606E000BFFFF752FDA8
:100BF000A0EB0A0064284ED8DBF80000C005F5D54C
:100C0000E06801280AD008B1052813D0286A20F02E
:100C100001002862286A20F0040002E0286A40F0FF
:100C200001002862E06841F2883B98B1FFF732FD8D
:100C300082460BE0286A40F004002862EEE700BF1D
:100C4000FFF728FDA0EB0A0159455AD8286A80070A
:100C5000F6D50CE0FFF71EFD824605E0FFF71AFD12
:100C6000A0EB0A0159454CD8286A8007F6D41FB179
:100C7000E86920F08050E861E06988B36968C1F3F1
:100C80008101022945D00228C6F8608004D0FFF710
:100C900001FD044638E034E0FFF7FCFC074604E0C1
:100CA000FFF7F8FCC01B02282BD828688001F7D476
:100CB000206AB0F5803F05D16868A16820F4003053
:100CC00008436860D4E908010843696821F4741195
:100CD00008436860C6F86090FFF7DCFC044606E055
:100CE00015E000BFFFF7D6FC001B022809D82868D2
:100CF0008001F7D50BE000BFFFF7CCFC001B0228FA
:100D000002D90320BDE8F88F28688001F4D40020C0
:100D1000F8E70120F6E70000001002400000424220
:100D20008004424218000020007000404FF0E02193
:100D30000428086903D020F004000861704740F0DF
:100D40000400FAE7704710B5401EB0F1807F01D370
:100D5000012010BD4FF0E02460610F21601700F00A
:100D6000DBF90020A06107202061002010BD10B534
:100D7000FFF7E8FF10BD704770B5026804461068C1
:100D8000D168536910F00F0F50D003F0010501F442
:100D9000907635435DD0C20705D0CA0503D5E26B16
:100DA00042F00102E263420705D5DA0703D0E26BA5
:100DB00042F00202E263820705D5DA0703D0E26B54
:100DC00042F00402E263020705D5DA0703D0E26BC2
:100DD00042F00802E263E26B002A33D0800604D5B9
:100DE000880602D5204600F01FFA20684069E16BB2
:100DF000C0F38010090700D428B3204600F006FA9B
:100E00002068416949061AD5416921F040014161D4
:100E1000606BA0B11B494163606BFFF7F9FA0028D2
:100E200010D0606B416BBDE870400847830610D559
:100E30008B060ED52046BDE8704000F0F5B920467F
:100E4000FFF799FF70BD2046FFF795FF0020E06394
:100E500070BD030606D50B0604D52046BDE87040DC
:100E600000F0E6BA4006F3D54806F1D5D168204631
:100E700021F04001D160202184F8391000F0FBF806
:100E800070BD0000FD11000870B5040004D094F896
:100E90003900002510B106E0012070BD84F83850FB
:100EA000204600F023F8242084F839002068C16827
:100EB00021F40051C160204600F002FA2068016967
:100EC00021F4904101612068416921F02A014161CA
:100ED0002068C16841F40051C160E563202084F8B6
:100EE000390084F83A00002070BD000010B5006899
:100EF000154986B0884225D11448816941F4804162
:100F000081618069124C00F4804004904FF40070BD
:100F10000090022001900320039069462046FFF7CD
:100F2000D5FA00212015CDE900010291694620463D
:100F3000FFF7CCFA002211462520FFF73DFC2520C3
:100F4000FFF72EFC06B010BD003801400010024033
:100F50000008014090F83A30202B22D1F9B1F2B1CB
:100F600090F83830012B1CD081628285C285002127
:100F7000C163222280F83A2080F838100168CA68DC
:100F800042F48072CA6001684A6942F001024A6113
:100F90000068C16841F02001C16000207047012055
:100FA00070470220704700000349006809688842C2
:100FB00001D1FFF793B970471C0200202DE9F843D7
:100FC000044690F839001F4616460D46202850D199
:100FD000A5B19EB194F8380001284AD0012084F8C8
:100FE00038004FF00008C4F83C80212084F8390014
:100FF000FFF750FBA6848146E68426E00120BDE889
:10100000F883E08C401EE084A0684B46B0F5805F1A
:101010004FF000024FF080012046009703D000F00F
:1010200038FAE8B90DE000F034FAC8B92888216828
:10103000C0F308004860206908B16D1C05E0AD1CD4
:1010400003E0216815F8010B4860E08C0028D8D136
:101050004B46002240212046009700F01AFA08B1C2
:101060000320CCE7202084F8390084F83880002061
:10107000C5E70220C3E77047FEE70000F0B522484D
:1010800085B0816941F010018161816901F0100131
:101090000491816941F020018161816901F02001A1
:1010A0000491816941F008018161816901F00801C1
:1010B0000491816941F0040181618069134E00F05F
:1010C00004004FF4C0440490012221463046FFF74B
:1010D000DBFA0F4F012203213846FFF7D5FA0094BF
:1010E00001240325694630460194CDE90245FFF706
:1010F000EDF9CDE9005469463846CDE90245FFF7E0
:10110000E5F905B0F0BD00000010024000100140FC
:10111000000C0140FEE770470907090E002806DAB7
:1011200000F00F0000F1E02080F8141D704700F17E
:10113000E02080F8001470477047704710B5FFF743
:10114000AFFABDE81040FFF712BE30B58FB00121F5
:101150000804CDE900100024029402250491CDE991
:1011600007504FF4C01009906846FFF75DFC00B1CE
:10117000FEE70F20CDE90A054FF48060CDE90C4071
:1011800002210AA80E94FFF749FB00B1FEE7FFF722
:10119000EFFB4FF47A71B0FBF1F0FFF7D4FD0420C0
:1011A000FFF7C4FD00221146501EFFF705FB0FB0EC
:1011B00030BD00000D48016841F001010160416847
:1011C0000B4A1140416001680A4A11400160016800
:1011D00021F480210160416821F4FE0141604FF457
:1011E0001F0181600449C00308607047001002407D
:1011F0000000FFF8FFFFF6FE08ED00E010B5406AC2
:101200000021C185C184FFF7B6FD10BD0168CA6821
:1012100022F49072CA6001684A6922F001024A61B0
:10122000202180F83A10704710B590F83A10222922
:1012300001D0022010BD8168B1F5805F11D0016935
:10124000002901681FD0496801F07F03816A4A1CA8
:1012500082620B70C18D491E0904090CC18518D02A
:101260002BE00269816A002A0268526805D0D2B276
:101270000A80816A491C8162ECE7C2F308020A8095
:10128000816A891CF7E74A68816A4B1C83620A708D
:10129000E0E70168CA6822F02002CA600168CA68F3
:1012A00022F48072CA6001684A6922F001024A6130
:1012B000202180F83A10FFF777FE002010BD0000D3
:1012C0002DE9F041044600680169E26821F44051CB
:1012D000114301612169A0680843616908432168DD
:1012E000CA6841F20C639A430243CA6020684169AC
:1012F000A26921F44071114341614C492068642581
:10130000322688423CD1FFF749FB00EBC00101EBDC
:10131000001061688900B0FBF1F7FFF73FFB00EBBD
:10132000C00101EB00106168B0468900B0FBF1F02C
:10133000B0FBF5F06FF01801484307EB800106EBB6
:101340000110B0FBF5F000F0F006FFF727FB00EB13
:10135000C00101EB001061688900B0FBF1F0B0FB47
:10136000F5F006EB0016FFF719FB00EBC00101EBEF
:10137000001061688900B0FBF1F7FFF70FFB3BE05D
:10138000FFF7FCFA00EBC00101EB00106168890077
:10139000B0FBF1F7FFF7F2FA00EBC00101EB001030
:1013A0006168B0468900B0FBF1F0B0FBF5F06FF07A
:1013B0001801484307EB800106EB0110B0FBF5F084
:1013C00000F0F006FFF7DAFA00EBC00101EB0010C5
:1013D00061688900B0FBF1F0B0FBF5F006EB001698
:1013E000FFF7CCFA00EBC00101EB00106168890047
:1013F000B0FBF1F7FFF7C2FA00EBC00101EB001000
:1014000061688900B0FBF1F0B0FBF5F06FF01801F6
:10141000484307EB800108EB0110B0FBF5F02168B1
:1014200000F00F0030448860BDE8F08100380140D2
:1014300090F83910212901D0022070478168B1F558
:10144000805F016A0BD04A1C026202680978516011
:10145000C18C491E0904090CC1840ED017E009880B
:101460000268C1F30801516001690029016A02D0D4
:10147000491C0162ECE7891CFBE70168CA6822F09D
:101480008002CA600068C16841F04001C16000206C
:1014900070472DE9F041984617460E460446069DD2
:1014A0001DE0681C1BD02DB1FFF7F4F8A0EB08007D
:1014B000A84214D92068C16821F4D071C1602068A5
:1014C000416921F001014161202084F8390084F84C
:1014D0003A00002084F838000320BDE8F08120683D
:1014E000006836EA000004D00020B842D9D00020BD
:1014F000F3E70120F9E700000148FFF73DBC0000D9
:101500001C020020FEE700000FB4084B10B504A930
:1015100002AA039800F01BF8044602A9002000F07C
:1015200081F8204610BC5DF814FB00002516000869
:1015300002E008C8121F08C1002AFAD1704770479C
:10154000002001E001C1121F002AFBD170472DE9E4
:10155000F84F9946924688460546002706E025281A
:101560000AD051464A4690476D1C7F1C28780028B7
:10157000F5D13846BDE8F88F002315F8011F18464D
:101580002E2915D115F8011F04232A290DD06FF03B
:101590002F022978A1F13004092C09D800EB800032
:1015A00002EB400008446D1CF3E758F8040B6D1C77
:1015B0002A78002ADDD0632A07D0732A0FD010467C
:1015C00051464A4690477F1C2AE018F8042B8DF8B4
:1015D000002000218DF801106E46012103E058F82B
:1015E000046B4FF0FF315A074FF0000401D409E0BB
:1015F000641C84420BDA8C42FADB325D002AF7D19C
:1016000005E0641C8C42FCDB305D0028F9D12744E6
:1016100004E016F8010B51464A469047641EF8D282
:101620006D1CA3E70A68531C0B6010707047000024
:10163000FFF73EF8FFF789FDFFF720FD114810493D
:101640000C2201604FF4E131416000218160C160F2
:10165000C0E904128161C161FFF716FC00B1FEE729
:10166000FEF7A2FD084C20706420FEF71DFF07A1C5
:1016700009A0FEF7BFFD60706420FEF715FFFEE7CE
:10168000003801401C020020080000204E696B6FEA
:101690006C615465736C61004F626974207465619C
:1016A0006D000000F0B50024264612E00578175DB5
:1016B000BD4214D1002509E02F19465DD75DBE4219
:1016C00002D00126641C04E000266D1C8D42F3DB71
:1016D0001EB19C42EADB0020F0BD0120F0BD0026D7
:1016E000F0E700000000000000000102030406070C
:1016F0000809000000000102030400001C17000894
:10170000000000201C0000003015000838170008F9
:101710001C000020440600004015000800000000E6
:1017200000000000000000000100000010000000A8
:081730000000000000A24A04C1
:04000005080000ED02
:00000001FF
